:1001CA000A08065B4F666D7D077F6F3F07123F0681
:0501DA005B4F666D7D26
:10000300D280D281C282D283D284D285C286D28761
:10001300C290D291D292D293C294D295D296D297D1
:1000230012011CD280D281C282D283D284D285C2F1
:1000330086D287D290C291D292D293D294C295D2D1
:1000430096D29712016DC280D281D282D283C284AA
:10005300D285D286D287D290D291C292D293D294B1
:10006300D295C296D29712011CD280C281D282D27B
:1000730083D284C285D286D287D290D291C292D2C1
:1000830093D294D295C296D29712016DD280D28127
:10009300D282C283D284D285D286C287C290D291C1
:1000A300D292D293C294D295D296D29712011CD2F5
:1000B30080D281D282C283D284D285D286C287D2B1
:1000C30090C291D292D293D294C295D296D29712E1
:1000D300016DC280D281D282D283C284D285D2867C
:1000E300D287D290D291D292C293D294D295D29601
:1000F300C29712011CD280C281D282D283D284C21F
:1001030085D286D287D290D291D292C293D294D200
:0901130095D296C29712016D22EB
:10011C0075A03FE4F51BF51CD3E51C9404E51B947A
:10012C0000503DE4F519F51AD3E51A9408E5199435
:10013C000050157408251AF8E6F5B0051AE51A7082
:10014C0002051912019F80E0051CE51C7002051BBD
:10015C007412251CF8E6F5A075B03F12019F80B80B
:01016C002270
:10016D0075A03FE4F519F51AD3E51A9408E519942D
:10017D000050157408251AF8E6F5B0051AE51A7041
:10018D0002051912019F80E075A00675B03F12019E
:02019D009F229F
:10019F00E4F51FF520E4F51DF51E051EE51E7002A2
:1001AF00051DE51E64EE451D70F00520E52070026B
:0B01BF00051FE52064E7451F70DB22F0
:030000000201E01A
:0C01E000787FE4F6D8FD7581200202272C
:1001EC00020003E493A3F8E493A34003F68001F226
:1001FC0008DFF48029E493A3F85407240CC8C33314
:10020C00C4540F4420C8834004F456800146F6DFE2
:10021C00E4800B01020408102040809001CAE47EA7
:10022C00019360BCA3FF543F30E509541FFEE493D7
:10023C00A360010ECF54C025E060A840B8E493A39E
:10024C00FAE493A3F8E493A3C8C582C8CAC583CAC9
:10025C00F0A3C8C582C8CAC583CADFE9DEE780BE81
:0101DF00001F
:00000001FF
